{
  "_format": "hh-sol-artifact-1",
  "contractName": "MyEpicNFT",
  "sourceName": "contracts/MyEpicNFT.sol",
  "abi": [
    {
      "inputs": [],
      "stateMutability": "nonpayable",
      "type": "constructor"
    },
    {
      "anonymous": false,
      "inputs": [
        {
          "indexed": true,
          "internalType": "address",
          "name": "owner",
          "type": "address"
        },
        {
          "indexed": true,
          "internalType": "address",
          "name": "approved",
          "type": "address"
        },
        {
          "indexed": true,
          "internalType": "uint256",
          "name": "tokenId",
          "type": "uint256"
        }
      ],
      "name": "Approval",
      "type": "event"
    },
    {
      "anonymous": false,
      "inputs": [
        {
          "indexed": true,
          "internalType": "address",
          "name": "owner",
          "type": "address"
        },
        {
          "indexed": true,
          "internalType": "address",
          "name": "operator",
          "type": "address"
        },
        {
          "indexed": false,
          "internalType": "bool",
          "name": "approved",
          "type": "bool"
        }
      ],
      "name": "ApprovalForAll",
      "type": "event"
    },
    {
      "anonymous": false,
      "inputs": [
        {
          "indexed": false,
          "internalType": "address",
          "name": "sender",
          "type": "address"
        },
        {
          "indexed": false,
          "internalType": "uint256",
          "name": "tokenId",
          "type": "uint256"
        }
      ],
      "name": "NewEpicNFTMinted",
      "type": "event"
    },
    {
      "anonymous": false,
      "inputs": [
        {
          "indexed": true,
          "internalType": "address",
          "name": "from",
          "type": "address"
        },
        {
          "indexed": true,
          "internalType": "address",
          "name": "to",
          "type": "address"
        },
        {
          "indexed": true,
          "internalType": "uint256",
          "name": "tokenId",
          "type": "uint256"
        }
      ],
      "name": "Transfer",
      "type": "event"
    },
    {
      "inputs": [
        {
          "internalType": "address",
          "name": "to",
          "type": "address"
        },
        {
          "internalType": "uint256",
          "name": "tokenId",
          "type": "uint256"
        }
      ],
      "name": "approve",
      "outputs": [],
      "stateMutability": "nonpayable",
      "type": "function"
    },
    {
      "inputs": [
        {
          "internalType": "address",
          "name": "owner",
          "type": "address"
        }
      ],
      "name": "balanceOf",
      "outputs": [
        {
          "internalType": "uint256",
          "name": "",
          "type": "uint256"
        }
      ],
      "stateMutability": "view",
      "type": "function"
    },
    {
      "inputs": [
        {
          "internalType": "uint256",
          "name": "tokenId",
          "type": "uint256"
        }
      ],
      "name": "getApproved",
      "outputs": [
        {
          "internalType": "address",
          "name": "",
          "type": "address"
        }
      ],
      "stateMutability": "view",
      "type": "function"
    },
    {
      "inputs": [
        {
          "internalType": "address",
          "name": "owner",
          "type": "address"
        },
        {
          "internalType": "address",
          "name": "operator",
          "type": "address"
        }
      ],
      "name": "isApprovedForAll",
      "outputs": [
        {
          "internalType": "bool",
          "name": "",
          "type": "bool"
        }
      ],
      "stateMutability": "view",
      "type": "function"
    },
    {
      "inputs": [],
      "name": "makeAnEpicNFT",
      "outputs": [],
      "stateMutability": "nonpayable",
      "type": "function"
    },
    {
      "inputs": [],
      "name": "name",
      "outputs": [
        {
          "internalType": "string",
          "name": "",
          "type": "string"
        }
      ],
      "stateMutability": "view",
      "type": "function"
    },
    {
      "inputs": [
        {
          "internalType": "uint256",
          "name": "tokenId",
          "type": "uint256"
        }
      ],
      "name": "ownerOf",
      "outputs": [
        {
          "internalType": "address",
          "name": "",
          "type": "address"
        }
      ],
      "stateMutability": "view",
      "type": "function"
    },
    {
      "inputs": [
        {
          "internalType": "uint256",
          "name": "tokenId",
          "type": "uint256"
        }
      ],
      "name": "pickRandomColor",
      "outputs": [
        {
          "internalType": "string",
          "name": "",
          "type": "string"
        }
      ],
      "stateMutability": "view",
      "type": "function"
    },
    {
      "inputs": [
        {
          "internalType": "uint256",
          "name": "tokenId",
          "type": "uint256"
        }
      ],
      "name": "pickRandomFirstWord",
      "outputs": [
        {
          "internalType": "string",
          "name": "",
          "type": "string"
        }
      ],
      "stateMutability": "view",
      "type": "function"
    },
    {
      "inputs": [
        {
          "internalType": "uint256",
          "name": "tokenId",
          "type": "uint256"
        }
      ],
      "name": "pickRandomSecondWord",
      "outputs": [
        {
          "internalType": "string",
          "name": "",
          "type": "string"
        }
      ],
      "stateMutability": "view",
      "type": "function"
    },
    {
      "inputs": [
        {
          "internalType": "uint256",
          "name": "tokenId",
          "type": "uint256"
        }
      ],
      "name": "pickRandomThirdWord",
      "outputs": [
        {
          "internalType": "string",
          "name": "",
          "type": "string"
        }
      ],
      "stateMutability": "view",
      "type": "function"
    },
    {
      "inputs": [
        {
          "internalType": "address",
          "name": "from",
          "type": "address"
        },
        {
          "internalType": "address",
          "name": "to",
          "type": "address"
        },
        {
          "internalType": "uint256",
          "name": "tokenId",
          "type": "uint256"
        }
      ],
      "name": "safeTransferFrom",
      "outputs": [],
      "stateMutability": "nonpayable",
      "type": "function"
    },
    {
      "inputs": [
        {
          "internalType": "address",
          "name": "from",
          "type": "address"
        },
        {
          "internalType": "address",
          "name": "to",
          "type": "address"
        },
        {
          "internalType": "uint256",
          "name": "tokenId",
          "type": "uint256"
        },
        {
          "internalType": "bytes",
          "name": "_data",
          "type": "bytes"
        }
      ],
      "name": "safeTransferFrom",
      "outputs": [],
      "stateMutability": "nonpayable",
      "type": "function"
    },
    {
      "inputs": [
        {
          "internalType": "address",
          "name": "operator",
          "type": "address"
        },
        {
          "internalType": "bool",
          "name": "approved",
          "type": "bool"
        }
      ],
      "name": "setApprovalForAll",
      "outputs": [],
      "stateMutability": "nonpayable",
      "type": "function"
    },
    {
      "inputs": [
        {
          "internalType": "bytes4",
          "name": "interfaceId",
          "type": "bytes4"
        }
      ],
      "name": "supportsInterface",
      "outputs": [
        {
          "internalType": "bool",
          "name": "",
          "type": "bool"
        }
      ],
      "stateMutability": "view",
      "type": "function"
    },
    {
      "inputs": [],
      "name": "symbol",
      "outputs": [
        {
          "internalType": "string",
          "name": "",
          "type": "string"
        }
      ],
      "stateMutability": "view",
      "type": "function"
    },
    {
      "inputs": [
        {
          "internalType": "uint256",
          "name": "tokenId",
          "type": "uint256"
        }
      ],
      "name": "tokenURI",
      "outputs": [
        {
          "internalType": "string",
          "name": "",
          "type": "string"
        }
      ],
      "stateMutability": "view",
      "type": "function"
    },
    {
      "inputs": [
        {
          "internalType": "address",
          "name": "from",
          "type": "address"
        },
        {
          "internalType": "address",
          "name": "to",
          "type": "address"
        },
        {
          "internalType": "uint256",
          "name": "tokenId",
          "type": "uint256"
        }
      ],
      "name": "transferFrom",
      "outputs": [],
      "stateMutability": "nonpayable",
      "type": "function"
    }
  ],
  "bytecode": "0x608060405260405180610100016040528060d3815260200162004d4560d39139600890805190602001906200003692919062000e4c565b5060405180608001604052806056815260200162004e3f60569139600990805190602001906200006892919062000e4c565b50604051806101e001604052806040518060400160405280600481526020017f49726f6e0000000000000000000000000000000000000000000000000000000081525081526020016040518060400160405280600481526020017f54686f720000000000000000000000000000000000000000000000000000000081525081526020016040518060400160405280600481526020017f576173700000000000000000000000000000000000000000000000000000000081525081526020016040518060400160405280600381526020017f416e74000000000000000000000000000000000000000000000000000000000081525081526020016040518060400160405280600481526020017f48756c6b0000000000000000000000000000000000000000000000000000000081525081526020016040518060400160405280600781526020017f4361707461696e0000000000000000000000000000000000000000000000000081525081526020016040518060400160405280600781526020017f4861776b6579650000000000000000000000000000000000000000000000000081525081526020016040518060400160405280600581526020017f426c61636b00000000000000000000000000000000000000000000000000000081525081526020016040518060400160405280600781526020017f536361726c65740000000000000000000000000000000000000000000000000081525081526020016040518060400160405280600b81526020017f517569636b73696c76657200000000000000000000000000000000000000000081525081526020016040518060400160405280600681526020017f566973696f6e000000000000000000000000000000000000000000000000000081525081526020016040518060400160405280600681526020017f446f63746f72000000000000000000000000000000000000000000000000000081525081526020016040518060400160405280600a81526020017f5761726d616368696e650000000000000000000000000000000000000000000081525081526020016040518060400160405280600781526020017f537472616e67650000000000000000000000000000000000000000000000000081525081526020016040518060400160405280600881526020017f5374696e67726179000000000000000000000000000000000000000000000000815250815250600a90600f620003fa92919062000edd565b50604051806101e001604052806040518060400160405280600781526020017f50696b616368750000000000000000000000000000000000000000000000000081525081526020016040518060400160405280600a81526020017f436861726c697a6172640000000000000000000000000000000000000000000081525081526020016040518060400160405280600781526020017f536e6f726c61780000000000000000000000000000000000000000000000000081525081526020016040518060400160405280600981526020017f42756c626173617572000000000000000000000000000000000000000000000081525081526020016040518060400160405280600881526020017f5371756972746c6500000000000000000000000000000000000000000000000081525081526020016040518060400160405280600781526020017f4d657461706f640000000000000000000000000000000000000000000000000081525081526020016040518060400160405280600681526020017f4a6967676c79000000000000000000000000000000000000000000000000000081525081526020016040518060400160405280600681526020017f56756c706978000000000000000000000000000000000000000000000000000081525081526020016040518060400160405280600681526020017f4d656f777468000000000000000000000000000000000000000000000000000081525081526020016040518060400160405280600581526020017f476c6f6f6d00000000000000000000000000000000000000000000000000000081525081526020016040518060400160405280600681526020017f4f6464697368000000000000000000000000000000000000000000000000000081525081526020016040518060400160405280600881526020017f56656e6f6d6f746800000000000000000000000000000000000000000000000081525081526020016040518060400160405280600581526020017f476f6c656d00000000000000000000000000000000000000000000000000000081525081526020016040518060400160405280600581526020017f42656c6c7300000000000000000000000000000000000000000000000000000081525081526020016040518060400160405280600781526020017f537461726d696500000000000000000000000000000000000000000000000000815250815250600b90600f6200078c92919062000edd565b50604051806101e001604052806040518060400160405280600681526020017f4e617275746f000000000000000000000000000000000000000000000000000081525081526020016040518060400160405280600681526020017f536173756b65000000000000000000000000000000000000000000000000000081525081526020016040518060400160405280600481526020017f476f6b750000000000000000000000000000000000000000000000000000000081525081526020016040518060400160405280600681526020017f4d696e61746f000000000000000000000000000000000000000000000000000081525081526020016040518060400160405280600781526020017f54616b657368690000000000000000000000000000000000000000000000000081525081526020016040518060400160405280600681526020017f4d6164617261000000000000000000000000000000000000000000000000000081525081526020016040518060400160405280600481526020017f417374610000000000000000000000000000000000000000000000000000000081525081526020016040518060400160405280600581526020017f44616e746500000000000000000000000000000000000000000000000000000081525081526020016040518060400160405280600581526020017f4461696b6900000000000000000000000000000000000000000000000000000081525081526020016040518060400160405280600481526020017f4d6f6f6e0000000000000000000000000000000000000000000000000000000081525081526020016040518060400160405280600681526020017f52616964656e000000000000000000000000000000000000000000000000000081525081526020016040518060400160405280600581526020017f536f75746100000000000000000000000000000000000000000000000000000081525081526020016040518060400160405280600481526020017f597572690000000000000000000000000000000000000000000000000000000081525081526020016040518060400160405280600381526020017f4b656e000000000000000000000000000000000000000000000000000000000081525081526020016040518060400160405280600481526020017f4d69676900000000000000000000000000000000000000000000000000000000815250815250600c90600f62000b1e92919062000edd565b506040518060c001604052806040518060400160405280600381526020017f726564000000000000000000000000000000000000000000000000000000000081525081526020016040518060400160405280600781526020017f233038433241380000000000000000000000000000000000000000000000000081525081526020016040518060400160405280600581526020017f626c61636b00000000000000000000000000000000000000000000000000000081525081526020016040518060400160405280600681526020017f79656c6c6f77000000000000000000000000000000000000000000000000000081525081526020016040518060400160405280600481526020017f626c75650000000000000000000000000000000000000000000000000000000081525081526020016040518060400160405280600581526020017f677265656e000000000000000000000000000000000000000000000000000000815250815250600d90600662000c9c92919062000f44565b5034801562000caa57600080fd5b506040518060400160405280600881526020017f526168756c4e46540000000000000000000000000000000000000000000000008152506040518060400160405280600681526020017f5351554152450000000000000000000000000000000000000000000000000000815250816000908051906020019062000d2f92919062000e4c565b50806001908051906020019062000d4892919062000e4c565b50505062000d7a60405180606001604052806027815260200162004e186027913962000d8060201b6200122a1760201c565b62001165565b62000e208160405160240162000d97919062001079565b6040516020818303038152906040527f41304fac000000000000000000000000000000000000000000000000000000007bffffffffffffffffffffffffffffffffffffffffffffffffffffffff19166020820180517bffffffffffffffffffffffffffffffffffffffffffffffffffffffff838183161783525050505062000e2360201b60201c565b50565b60008151905060006a636f6e736f6c652e6c6f679050602083016000808483855afa5050505050565b82805462000e5a90620010ef565b90600052602060002090601f01602090048101928262000e7e576000855562000eca565b82601f1062000e9957805160ff191683800117855562000eca565b8280016001018555821562000eca579182015b8281111562000ec957825182559160200191906001019062000eac565b5b50905062000ed9919062000fab565b5090565b82805482825590600052602060002090810192821562000f31579160200282015b8281111562000f3057825182908051906020019062000f1f92919062000e4c565b509160200191906001019062000efe565b5b50905062000f40919062000fca565b5090565b82805482825590600052602060002090810192821562000f98579160200282015b8281111562000f9757825182908051906020019062000f8692919062000e4c565b509160200191906001019062000f65565b5b50905062000fa7919062000fca565b5090565b5b8082111562000fc657600081600090555060010162000fac565b5090565b5b8082111562000fee576000818162000fe4919062000ff2565b5060010162000fcb565b5090565b5080546200100090620010ef565b6000825580601f1062001014575062001035565b601f01602090049060005260206000209081019062001034919062000fab565b5b50565b600062001045826200109d565b620010518185620010a8565b935062001063818560208601620010b9565b6200106e8162001154565b840191505092915050565b6000602082019050818103600083015262001095818462001038565b905092915050565b600081519050919050565b600082825260208201905092915050565b60005b83811015620010d9578082015181840152602081019050620010bc565b83811115620010e9576000848401525b50505050565b600060028204905060018216806200110857607f821691505b602082108114156200111f576200111e62001125565b5b50919050565b7f4e487b7100000000000000000000000000000000000000000000000000000000600052602260045260246000fd5b6000601f19601f8301169050919050565b613bd080620011756000396000f3fe608060405234801561001057600080fd5b50600436106101165760003560e01c806370a08231116100a2578063b88d4fde11610071578063b88d4fde14610317578063c575757a14610333578063c87b56dd14610363578063de9d132f14610393578063e985e9c51461039d57610116565b806370a082311461027d57806395d89b41146102ad578063a22cb465146102cb578063b187301f146102e757610116565b806323b872dd116100e957806323b872dd146101b55780632de38d68146101d157806342842e0e14610201578063514dc8c61461021d5780636352211e1461024d57610116565b806301ffc9a71461011b57806306fdde031461014b578063081812fc14610169578063095ea7b314610199575b600080fd5b61013560048036038101906101309190612656565b6103cd565b6040516101429190612dbf565b60405180910390f35b6101536104af565b6040516101609190612dda565b60405180910390f35b610183600480360381019061017e91906126a8565b610541565b6040516101909190612d2f565b60405180910390f35b6101b360048036038101906101ae919061261a565b6105c6565b005b6101cf60048036038101906101ca9190612514565b6106de565b005b6101eb60048036038101906101e691906126a8565b61073e565b6040516101f89190612dda565b60405180910390f35b61021b60048036038101906102169190612514565b61085c565b005b610237600480360381019061023291906126a8565b61087c565b6040516102449190612dda565b60405180910390f35b610267600480360381019061026291906126a8565b61099a565b6040516102749190612d2f565b60405180910390f35b610297600480360381019061029291906124af565b610a4c565b6040516102a4919061303a565b60405180910390f35b6102b5610b04565b6040516102c29190612dda565b60405180910390f35b6102e560048036038101906102e091906125de565b610b96565b005b61030160048036038101906102fc91906126a8565b610bac565b60405161030e9190612dda565b60405180910390f35b610331600480360381019061032c9190612563565b610cca565b005b61034d600480360381019061034891906126a8565b610d2c565b60405161035a9190612dda565b60405180910390f35b61037d600480360381019061037891906126a8565b610e4a565b60405161038a9190612dda565b60405180910390f35b61039b610f9c565b005b6103b760048036038101906103b291906124d8565b611196565b6040516103c49190612dbf565b60405180910390f35b60007f80ac58cd000000000000000000000000000000000000000000000000000000007bffffffffffffffffffffffffffffffffffffffffffffffffffffffff1916827bffffffffffffffffffffffffffffffffffffffffffffffffffffffff1916148061049857507f5b5e139f000000000000000000000000000000000000000000000000000000007bffffffffffffffffffffffffffffffffffffffffffffffffffffffff1916827bffffffffffffffffffffffffffffffffffffffffffffffffffffffff1916145b806104a857506104a7826112c3565b5b9050919050565b6060600080546104be906132ce565b80601f01602080910402602001604051908101604052809291908181526020018280546104ea906132ce565b80156105375780601f1061050c57610100808354040283529160200191610537565b820191906000526020600020905b81548152906001019060200180831161051a57829003601f168201915b5050505050905090565b600061054c8261132d565b61058b576040517f08c379a000000000000000000000000000000000000000000000000000000000815260040161058290612fba565b60405180910390fd5b6004600083815260200190815260200160002060009054906101000a900473ffffffffffffffffffffffffffffffffffffffff169050919050565b60006105d18261099a565b90508073ffffffffffffffffffffffffffffffffffffffff168373ffffffffffffffffffffffffffffffffffffffff161415610642576040517f08c379a000000000000000000000000000000000000000000000000000000000815260040161063990612ffa565b60405180910390fd5b8073ffffffffffffffffffffffffffffffffffffffff16610661611399565b73ffffffffffffffffffffffffffffffffffffffff161480610690575061068f8161068a611399565b611196565b5b6106cf576040517f08c379a00000000000000000000000000000000000000000000000000000000081526004016106c690612efa565b60405180910390fd5b6106d983836113a1565b505050565b6106ef6106e9611399565b8261145a565b61072e576040517f08c379a00000000000000000000000000000000000000000000000000000000081526004016107259061301a565b60405180910390fd5b610739838383611538565b505050565b6060600061077261074e8461179f565b60405160200161075e9190612cc9565b60405160208183030381529060405261194c565b9050600a8054905081610785919061337a565b9050600a81815481106107c1577f4e487b7100000000000000000000000000000000000000000000000000000000600052603260045260246000fd5b9060005260206000200180546107d6906132ce565b80601f0160208091040260200160405190810160405280929190818152602001828054610802906132ce565b801561084f5780601f106108245761010080835404028352916020019161084f565b820191906000526020600020905b81548152906001019060200180831161083257829003601f168201915b5050505050915050919050565b61087783838360405180602001604052806000815250610cca565b505050565b606060006108b061088c8461179f565b60405160200161089c9190612d0d565b60405160208183030381529060405261194c565b9050600d80549050816108c3919061337a565b9050600d81815481106108ff577f4e487b7100000000000000000000000000000000000000000000000000000000600052603260045260246000fd5b906000526020600020018054610914906132ce565b80601f0160208091040260200160405190810160405280929190818152602001828054610940906132ce565b801561098d5780601f106109625761010080835404028352916020019161098d565b820191906000526020600020905b81548152906001019060200180831161097057829003601f168201915b5050505050915050919050565b6000806002600084815260200190815260200160002060009054906101000a900473ffffffffffffffffffffffffffffffffffffffff169050600073ffffffffffffffffffffffffffffffffffffffff168173ffffffffffffffffffffffffffffffffffffffff161415610a43576040517f08c379a0000000000000000000000000000000000000000000000000000000008152600401610a3a90612f3a565b60405180910390fd5b80915050919050565b60008073ffffffffffffffffffffffffffffffffffffffff168273ffffffffffffffffffffffffffffffffffffffff161415610abd576040517f08c379a0000000000000000000000000000000000000000000000000000000008152600401610ab490612f1a565b60405180910390fd5b600360008373ffffffffffffffffffffffffffffffffffffffff1673ffffffffffffffffffffffffffffffffffffffff168152602001908152602001600020549050919050565b606060018054610b13906132ce565b80601f0160208091040260200160405190810160405280929190818152602001828054610b3f906132ce565b8015610b8c5780601f10610b6157610100808354040283529160200191610b8c565b820191906000526020600020905b815481529060010190602001808311610b6f57829003601f168201915b5050505050905090565b610ba8610ba1611399565b838361197f565b5050565b60606000610be0610bbc8461179f565b604051602001610bcc9190612c62565b60405160208183030381529060405261194c565b9050600b8054905081610bf3919061337a565b9050600b8181548110610c2f577f4e487b7100000000000000000000000000000000000000000000000000000000600052603260045260246000fd5b906000526020600020018054610c44906132ce565b80601f0160208091040260200160405190810160405280929190818152602001828054610c70906132ce565b8015610cbd5780601f10610c9257610100808354040283529160200191610cbd565b820191906000526020600020905b815481529060010190602001808311610ca057829003601f168201915b5050505050915050919050565b610cdb610cd5611399565b8361145a565b610d1a576040517f08c379a0000000000000000000000000000000000000000000000000000000008152600401610d119061301a565b60405180910390fd5b610d2684848484611aec565b50505050565b60606000610d60610d3c8461179f565b604051602001610d4c9190612c40565b60405160208183030381529060405261194c565b9050600c8054905081610d73919061337a565b9050600c8181548110610daf577f4e487b7100000000000000000000000000000000000000000000000000000000600052603260045260246000fd5b906000526020600020018054610dc4906132ce565b80601f0160208091040260200160405190810160405280929190818152602001828054610df0906132ce565b8015610e3d5780601f10610e1257610100808354040283529160200191610e3d565b820191906000526020600020905b815481529060010190602001808311610e2057829003601f168201915b5050505050915050919050565b6060610e558261132d565b610e94576040517f08c379a0000000000000000000000000000000000000000000000000000000008152600401610e8b90612f9a565b60405180910390fd5b6000600660008481526020019081526020016000208054610eb4906132ce565b80601f0160208091040260200160405190810160405280929190818152602001828054610ee0906132ce565b8015610f2d5780601f10610f0257610100808354040283529160200191610f2d565b820191906000526020600020905b815481529060010190602001808311610f1057829003601f168201915b505050505090506000610f3e611b48565b9050600081511415610f54578192505050610f97565b600082511115610f89578082604051602001610f71929190612ba2565b60405160208183030381529060405292505050610f97565b610f9284611b5f565b925050505b919050565b6000610fa86007611c06565b90506000610fb58261073e565b90506000610fc283610bac565b90506000610fcf84610d2c565b90506000838383604051602001610fe893929190612bc6565b604051602081830303815290604052905060006110048661087c565b905060006008826009856040516020016110219493929190612bf7565b604051602081830303815290604052905060006110668461104184611c14565b604051602001611052929190612c84565b604051602081830303815290604052611c14565b905060008160405160200161107b9190612ceb565b60405160208183030381529060405290506110ca6040518060400160405280601581526020017f0a2d2d2d2d2d2d2d2d2d2d2d2d2d2d2d2d2d2d2d2d000000000000000000000081525061122a565b6110d38161122a565b6111116040518060400160405280601581526020017f2d2d2d2d2d2d2d2d2d2d2d2d2d2d2d2d2d2d2d2d0a000000000000000000000081525061122a565b61111b338a611dd2565b6111258982611df0565b61112f6007611e64565b611152604051806060016040528060258152602001613b36602591398a33611e7a565b7febb98688741ffa4c7589bf325de30cf7becb63de567842e1ccdb6cb949fdc82c338a604051611183929190612d96565b60405180910390a1505050505050505050565b6000600560008473ffffffffffffffffffffffffffffffffffffffff1673ffffffffffffffffffffffffffffffffffffffff16815260200190815260200160002060008373ffffffffffffffffffffffffffffffffffffffff1673ffffffffffffffffffffffffffffffffffffffff16815260200190815260200160002060009054906101000a900460ff16905092915050565b6112c08160405160240161123e9190612dda565b6040516020818303038152906040527f41304fac000000000000000000000000000000000000000000000000000000007bffffffffffffffffffffffffffffffffffffffffffffffffffffffff19166020820180517bffffffffffffffffffffffffffffffffffffffffffffffffffffffff8381831617835250505050611f19565b50565b60007f01ffc9a7000000000000000000000000000000000000000000000000000000007bffffffffffffffffffffffffffffffffffffffffffffffffffffffff1916827bffffffffffffffffffffffffffffffffffffffffffffffffffffffff1916149050919050565b60008073ffffffffffffffffffffffffffffffffffffffff166002600084815260200190815260200160002060009054906101000a900473ffffffffffffffffffffffffffffffffffffffff1673ffffffffffffffffffffffffffffffffffffffff1614159050919050565b600033905090565b816004600083815260200190815260200160002060006101000a81548173ffffffffffffffffffffffffffffffffffffffff021916908373ffffffffffffffffffffffffffffffffffffffff160217905550808273ffffffffffffffffffffffffffffffffffffffff166114148361099a565b73ffffffffffffffffffffffffffffffffffffffff167f8c5be1e5ebec7d5bd14f71427d1e84f3dd0314c0f7b2291e5b200ac8c7c3b92560405160405180910390a45050565b60006114658261132d565b6114a4576040517f08c379a000000000000000000000000000000000000000000000000000000000815260040161149b90612eda565b60405180910390fd5b60006114af8361099a565b90508073ffffffffffffffffffffffffffffffffffffffff168473ffffffffffffffffffffffffffffffffffffffff16148061151e57508373ffffffffffffffffffffffffffffffffffffffff1661150684610541565b73ffffffffffffffffffffffffffffffffffffffff16145b8061152f575061152e8185611196565b5b91505092915050565b8273ffffffffffffffffffffffffffffffffffffffff166115588261099a565b73ffffffffffffffffffffffffffffffffffffffff16146115ae576040517f08c379a00000000000000000000000000000000000000000000000000000000081526004016115a590612e5a565b60405180910390fd5b600073ffffffffffffffffffffffffffffffffffffffff168273ffffffffffffffffffffffffffffffffffffffff16141561161e576040517f08c379a000000000000000000000000000000000000000000000000000000000815260040161161590612e9a565b60405180910390fd5b611629838383611f42565b6116346000826113a1565b6001600360008573ffffffffffffffffffffffffffffffffffffffff1673ffffffffffffffffffffffffffffffffffffffff168152602001908152602001600020600082825461168491906131e4565b925050819055506001600360008473ffffffffffffffffffffffffffffffffffffffff1673ffffffffffffffffffffffffffffffffffffffff16815260200190815260200160002060008282546116db9190613103565b92505081905550816002600083815260200190815260200160002060006101000a81548173ffffffffffffffffffffffffffffffffffffffff021916908373ffffffffffffffffffffffffffffffffffffffff160217905550808273ffffffffffffffffffffffffffffffffffffffff168473ffffffffffffffffffffffffffffffffffffffff167fddf252ad1be2c89b69c2b068fc378daa952ba7f163c4a11628f55a4df523b3ef60405160405180910390a461179a838383611f47565b505050565b606060008214156117e7576040518060400160405280600181526020017f30000000000000000000000000000000000000000000000000000000000000008152509050611947565b600082905060005b6000821461181957808061180290613331565b915050600a826118129190613159565b91506117ef565b60008167ffffffffffffffff81111561185b577f4e487b7100000000000000000000000000000000000000000000000000000000600052604160045260246000fd5b6040519080825280601f01601f19166020018201604052801561188d5781602001600182028036833780820191505090505b5090505b60008514611940576001826118a691906131e4565b9150600a856118b5919061337a565b60306118c19190613103565b60f81b8183815181106118fd577f4e487b7100000000000000000000000000000000000000000000000000000000600052603260045260246000fd5b60200101907effffffffffffffffffffffffffffffffffffffffffffffffffffffffffffff1916908160001a905350600a856119399190613159565b9450611891565b8093505050505b919050565b60008160405160200161195f9190612b8b565b6040516020818303038152906040528051906020012060001c9050919050565b8173ffffffffffffffffffffffffffffffffffffffff168373ffffffffffffffffffffffffffffffffffffffff1614156119ee576040517f08c379a00000000000000000000000000000000000000000000000000000000081526004016119e590612eba565b60405180910390fd5b80600560008573ffffffffffffffffffffffffffffffffffffffff1673ffffffffffffffffffffffffffffffffffffffff16815260200190815260200160002060008473ffffffffffffffffffffffffffffffffffffffff1673ffffffffffffffffffffffffffffffffffffffff16815260200190815260200160002060006101000a81548160ff0219169083151502179055508173ffffffffffffffffffffffffffffffffffffffff168373ffffffffffffffffffffffffffffffffffffffff167f17307eab39ab6107e8899845ad3d59bd9653f200f220920489ca2b5937696c3183604051611adf9190612dbf565b60405180910390a3505050565b611af7848484611538565b611b0384848484611f4c565b611b42576040517f08c379a0000000000000000000000000000000000000000000000000000000008152600401611b3990612e3a565b60405180910390fd5b50505050565b606060405180602001604052806000815250905090565b6060611b6a8261132d565b611ba9576040517f08c379a0000000000000000000000000000000000000000000000000000000008152600401611ba090612fda565b60405180910390fd5b6000611bb3611b48565b90506000815111611bd35760405180602001604052806000815250611bfe565b80611bdd8461179f565b604051602001611bee929190612ba2565b6040516020818303038152906040525b915050919050565b600081600001549050919050565b60606000825190506000811415611c3d5760405180602001604052806000815250915050611dcd565b60006003600283611c4e9190613103565b611c589190613159565b6004611c64919061318a565b90506000602082611c759190613103565b67ffffffffffffffff811115611cb4577f4e487b7100000000000000000000000000000000000000000000000000000000600052604160045260246000fd5b6040519080825280601f01601f191660200182016040528015611ce65781602001600182028036833780820191505090505b5090506000604051806060016040528060408152602001613b5b604091399050600181016020830160005b86811015611d8a5760038101905062ffffff818a015116603f8160121c168401518060081b905060ff603f83600c1c1686015116810190508060081b905060ff603f8360061c1686015116810190508060081b905060ff603f831686015116810190508060e01b90508084526004840193505050611d11565b506003860660018114611da45760028114611db457611dbf565b613d3d60f01b6002830352611dbf565b603d60f81b60018303525b508484525050819450505050505b919050565b611dec8282604051806020016040528060008152506120e3565b5050565b611df98261132d565b611e38576040517f08c379a0000000000000000000000000000000000000000000000000000000008152600401611e2f90612f5a565b60405180910390fd5b80600660008481526020019081526020016000209080519060200190611e5f92919061233b565b505050565b6001816000016000828254019250508190555050565b611f14838383604051602401611e9293929190612dfc565b6040516020818303038152906040527fe3849f79000000000000000000000000000000000000000000000000000000007bffffffffffffffffffffffffffffffffffffffffffffffffffffffff19166020820180517bffffffffffffffffffffffffffffffffffffffffffffffffffffffff8381831617835250505050611f19565b505050565b60008151905060006a636f6e736f6c652e6c6f679050602083016000808483855afa5050505050565b505050565b505050565b6000611f6d8473ffffffffffffffffffffffffffffffffffffffff1661213e565b156120d6578373ffffffffffffffffffffffffffffffffffffffff1663150b7a02611f96611399565b8786866040518563ffffffff1660e01b8152600401611fb89493929190612d4a565b602060405180830381600087803b158015611fd257600080fd5b505af192505050801561200357506040513d601f19601f82011682018060405250810190612000919061267f565b60015b612086573d8060008114612033576040519150601f19603f3d011682016040523d82523d6000602084013e612038565b606091505b5060008151141561207e576040517f08c379a000000000000000000000000000000000000000000000000000000000815260040161207590612e3a565b60405180910390fd5b805181602001fd5b63150b7a0260e01b7bffffffffffffffffffffffffffffffffffffffffffffffffffffffff1916817bffffffffffffffffffffffffffffffffffffffffffffffffffffffff1916149150506120db565b600190505b949350505050565b6120ed8383612161565b6120fa6000848484611f4c565b612139576040517f08c379a000000000000000000000000000000000000000000000000000000000815260040161213090612e3a565b60405180910390fd5b505050565b6000808273ffffffffffffffffffffffffffffffffffffffff163b119050919050565b600073ffffffffffffffffffffffffffffffffffffffff168273ffffffffffffffffffffffffffffffffffffffff1614156121d1576040517f08c379a00000000000000000000000000000000000000000000000000000000081526004016121c890612f7a565b60405180910390fd5b6121da8161132d565b1561221a576040517f08c379a000000000000000000000000000000000000000000000000000000000815260040161221190612e7a565b60405180910390fd5b61222660008383611f42565b6001600360008473ffffffffffffffffffffffffffffffffffffffff1673ffffffffffffffffffffffffffffffffffffffff16815260200190815260200160002060008282546122769190613103565b92505081905550816002600083815260200190815260200160002060006101000a81548173ffffffffffffffffffffffffffffffffffffffff021916908373ffffffffffffffffffffffffffffffffffffffff160217905550808273ffffffffffffffffffffffffffffffffffffffff16600073ffffffffffffffffffffffffffffffffffffffff167fddf252ad1be2c89b69c2b068fc378daa952ba7f163c4a11628f55a4df523b3ef60405160405180910390a461233760008383611f47565b5050565b828054612347906132ce565b90600052602060002090601f01602090048101928261236957600085556123b0565b82601f1061238257805160ff19168380011785556123b0565b828001600101855582156123b0579182015b828111156123af578251825591602001919060010190612394565b5b5090506123bd91906123c1565b5090565b5b808211156123da5760008160009055506001016123c2565b5090565b60006123f16123ec8461307a565b613055565b90508281526020810184848401111561240957600080fd5b61241484828561328c565b509392505050565b60008135905061242b81613ad9565b92915050565b60008135905061244081613af0565b92915050565b60008135905061245581613b07565b92915050565b60008151905061246a81613b07565b92915050565b600082601f83011261248157600080fd5b81356124918482602086016123de565b91505092915050565b6000813590506124a981613b1e565b92915050565b6000602082840312156124c157600080fd5b60006124cf8482850161241c565b91505092915050565b600080604083850312156124eb57600080fd5b60006124f98582860161241c565b925050602061250a8582860161241c565b9150509250929050565b60008060006060848603121561252957600080fd5b60006125378682870161241c565b93505060206125488682870161241c565b92505060406125598682870161249a565b9150509250925092565b6000806000806080858703121561257957600080fd5b60006125878782880161241c565b94505060206125988782880161241c565b93505060406125a98782880161249a565b925050606085013567ffffffffffffffff8111156125c657600080fd5b6125d287828801612470565b91505092959194509250565b600080604083850312156125f157600080fd5b60006125ff8582860161241c565b925050602061261085828601612431565b9150509250929050565b6000806040838503121561262d57600080fd5b600061263b8582860161241c565b925050602061264c8582860161249a565b9150509250929050565b60006020828403121561266857600080fd5b600061267684828501612446565b91505092915050565b60006020828403121561269157600080fd5b600061269f8482850161245b565b91505092915050565b6000602082840312156126ba57600080fd5b60006126c88482850161249a565b91505092915050565b6126da81613218565b82525050565b6126e98161322a565b82525050565b60006126fa826130c0565b61270481856130d6565b935061271481856020860161329b565b61271d81613467565b840191505092915050565b6000612733826130cb565b61273d81856130e7565b935061274d81856020860161329b565b61275681613467565b840191505092915050565b600061276c826130cb565b61277681856130f8565b935061278681856020860161329b565b80840191505092915050565b6000815461279f816132ce565b6127a981866130f8565b945060018216600081146127c457600181146127d557612808565b60ff19831686528186019350612808565b6127de856130ab565b60005b83811015612800578154818901526001820191506020810190506127e1565b838801955050505b50505092915050565b600061281e6032836130e7565b915061282982613478565b604082019050919050565b60006128416025836130e7565b915061284c826134c7565b604082019050919050565b6000612864601c836130e7565b915061286f82613516565b602082019050919050565b6000612887600a836130f8565b91506128928261353f565b600a82019050919050565b60006128aa6024836130e7565b91506128b582613568565b604082019050919050565b60006128cd6019836130e7565b91506128d8826135b7565b602082019050919050565b60006128f06063836130f8565b91506128fb826135e0565b606382019050919050565b6000612913600b836130f8565b915061291e8261367b565b600b82019050919050565b6000612936602c836130e7565b9150612941826136a4565b604082019050919050565b6000612959600d836130f8565b9150612964826136f3565b600d82019050919050565b600061297c6038836130e7565b91506129878261371c565b604082019050919050565b600061299f602a836130e7565b91506129aa8261376b565b604082019050919050565b60006129c26029836130e7565b91506129cd826137ba565b604082019050919050565b60006129e5602e836130e7565b91506129f082613809565b604082019050919050565b6000612a086002836130f8565b9150612a1382613858565b600282019050919050565b6000612a2b6020836130e7565b9150612a3682613881565b602082019050919050565b6000612a4e6031836130e7565b9150612a59826138aa565b604082019050919050565b6000612a71602c836130e7565b9150612a7c826138f9565b604082019050919050565b6000612a94602f836130e7565b9150612a9f82613948565b604082019050919050565b6000612ab7600a836130f8565b9150612ac282613997565b600a82019050919050565b6000612ada6021836130e7565b9150612ae5826139c0565b604082019050919050565b6000612afd600a836130f8565b9150612b0882613a0f565b600a82019050919050565b6000612b20601d836130f8565b9150612b2b82613a38565b601d82019050919050565b6000612b436031836130e7565b9150612b4e82613a61565b604082019050919050565b6000612b666005836130f8565b9150612b7182613ab0565b600582019050919050565b612b8581613282565b82525050565b6000612b978284612761565b915081905092915050565b6000612bae8285612761565b9150612bba8284612761565b91508190509392505050565b6000612bd28286612761565b9150612bde8285612761565b9150612bea8284612761565b9150819050949350505050565b6000612c038287612792565b9150612c0f8286612761565b9150612c1b8285612792565b9150612c278284612761565b9150612c328261294c565b915081905095945050505050565b6000612c4b8261287a565b9150612c578284612761565b915081905092915050565b6000612c6d82612906565b9150612c798284612761565b915081905092915050565b6000612c8f82612aaa565b9150612c9b8285612761565b9150612ca6826128e3565b9150612cb28284612761565b9150612cbd826129fb565b91508190509392505050565b6000612cd482612af0565b9150612ce08284612761565b915081905092915050565b6000612cf682612b13565b9150612d028284612761565b915081905092915050565b6000612d1882612b59565b9150612d248284612761565b915081905092915050565b6000602082019050612d4460008301846126d1565b92915050565b6000608082019050612d5f60008301876126d1565b612d6c60208301866126d1565b612d796040830185612b7c565b8181036060830152612d8b81846126ef565b905095945050505050565b6000604082019050612dab60008301856126d1565b612db86020830184612b7c565b9392505050565b6000602082019050612dd460008301846126e0565b92915050565b60006020820190508181036000830152612df48184612728565b905092915050565b60006060820190508181036000830152612e168186612728565b9050612e256020830185612b7c565b612e3260408301846126d1565b949350505050565b60006020820190508181036000830152612e5381612811565b9050919050565b60006020820190508181036000830152612e7381612834565b9050919050565b60006020820190508181036000830152612e9381612857565b9050919050565b60006020820190508181036000830152612eb38161289d565b9050919050565b60006020820190508181036000830152612ed3816128c0565b9050919050565b60006020820190508181036000830152612ef381612929565b9050919050565b60006020820190508181036000830152612f138161296f565b9050919050565b60006020820190508181036000830152612f3381612992565b9050919050565b60006020820190508181036000830152612f53816129b5565b9050919050565b60006020820190508181036000830152612f73816129d8565b9050919050565b60006020820190508181036000830152612f9381612a1e565b9050919050565b60006020820190508181036000830152612fb381612a41565b9050919050565b60006020820190508181036000830152612fd381612a64565b9050919050565b60006020820190508181036000830152612ff381612a87565b9050919050565b6000602082019050818103600083015261301381612acd565b9050919050565b6000602082019050818103600083015261303381612b36565b9050919050565b600060208201905061304f6000830184612b7c565b92915050565b600061305f613070565b905061306b8282613300565b919050565b6000604051905090565b600067ffffffffffffffff82111561309557613094613438565b5b61309e82613467565b9050602081019050919050565b60008190508160005260206000209050919050565b600081519050919050565b600081519050919050565b600082825260208201905092915050565b600082825260208201905092915050565b600081905092915050565b600061310e82613282565b915061311983613282565b9250827fffffffffffffffffffffffffffffffffffffffffffffffffffffffffffffffff0382111561314e5761314d6133ab565b5b828201905092915050565b600061316482613282565b915061316f83613282565b92508261317f5761317e6133da565b5b828204905092915050565b600061319582613282565b91506131a083613282565b9250817fffffffffffffffffffffffffffffffffffffffffffffffffffffffffffffffff04831182151516156131d9576131d86133ab565b5b828202905092915050565b60006131ef82613282565b91506131fa83613282565b92508282101561320d5761320c6133ab565b5b828203905092915050565b600061322382613262565b9050919050565b60008115159050919050565b60007fffffffff0000000000000000000000000000000000000000000000000000000082169050919050565b600073ffffffffffffffffffffffffffffffffffffffff82169050919050565b6000819050919050565b82818337600083830152505050565b60005b838110156132b957808201518184015260208101905061329e565b838111156132c8576000848401525b50505050565b600060028204905060018216806132e657607f821691505b602082108114156132fa576132f9613409565b5b50919050565b61330982613467565b810181811067ffffffffffffffff8211171561332857613327613438565b5b80604052505050565b600061333c82613282565b91507fffffffffffffffffffffffffffffffffffffffffffffffffffffffffffffffff82141561336f5761336e6133ab565b5b600182019050919050565b600061338582613282565b915061339083613282565b9250826133a05761339f6133da565b5b828206905092915050565b7f4e487b7100000000000000000000000000000000000000000000000000000000600052601160045260246000fd5b7f4e487b7100000000000000000000000000000000000000000000000000000000600052601260045260246000fd5b7f4e487b7100000000000000000000000000000000000000000000000000000000600052602260045260246000fd5b7f4e487b7100000000000000000000000000000000000000000000000000000000600052604160045260246000fd5b6000601f19601f8301169050919050565b7f4552433732313a207472616e7366657220746f206e6f6e20455243373231526560008201527f63656976657220696d706c656d656e7465720000000000000000000000000000602082015250565b7f4552433732313a207472616e736665722066726f6d20696e636f72726563742060008201527f6f776e6572000000000000000000000000000000000000000000000000000000602082015250565b7f4552433732313a20746f6b656e20616c7265616479206d696e74656400000000600082015250565b7f54484952445f574f524400000000000000000000000000000000000000000000600082015250565b7f4552433732313a207472616e7366657220746f20746865207a65726f2061646460008201527f7265737300000000000000000000000000000000000000000000000000000000602082015250565b7f4552433732313a20617070726f766520746f2063616c6c657200000000000000600082015250565b7f222c20226465736372697074696f6e223a20224120686967686c79206163636c60008201527f61696d656420636f6c6c656374696f6e206f6620737175617265732e222c202260208201527f696d616765223a2022646174613a696d6167652f7376672b786d6c3b6261736560408201527f36342c0000000000000000000000000000000000000000000000000000000000606082015250565b7f5345434f4e445f574f5244000000000000000000000000000000000000000000600082015250565b7f4552433732313a206f70657261746f7220717565727920666f72206e6f6e657860008201527f697374656e7420746f6b656e0000000000000000000000000000000000000000602082015250565b7f3c2f746578743e3c2f7376673e00000000000000000000000000000000000000600082015250565b7f4552433732313a20617070726f76652063616c6c6572206973206e6f74206f7760008201527f6e6572206e6f7220617070726f76656420666f7220616c6c0000000000000000602082015250565b7f4552433732313a2062616c616e636520717565727920666f7220746865207a6560008201527f726f206164647265737300000000000000000000000000000000000000000000602082015250565b7f4552433732313a206f776e657220717565727920666f72206e6f6e657869737460008201527f656e7420746f6b656e0000000000000000000000000000000000000000000000602082015250565b7f45524337323155524953746f726167653a2055524920736574206f66206e6f6e60008201527f6578697374656e7420746f6b656e000000000000000000000000000000000000602082015250565b7f227d000000000000000000000000000000000000000000000000000000000000600082015250565b7f4552433732313a206d696e7420746f20746865207a65726f2061646472657373600082015250565b7f45524337323155524953746f726167653a2055524920717565727920666f722060008201527f6e6f6e6578697374656e7420746f6b656e000000000000000000000000000000602082015250565b7f4552433732313a20617070726f76656420717565727920666f72206e6f6e657860008201527f697374656e7420746f6b656e0000000000000000000000000000000000000000602082015250565b7f4552433732314d657461646174613a2055524920717565727920666f72206e6f60008201527f6e6578697374656e7420746f6b656e0000000000000000000000000000000000602082015250565b7f7b226e616d65223a202200000000000000000000000000000000000000000000600082015250565b7f4552433732313a20617070726f76616c20746f2063757272656e74206f776e6560008201527f7200000000000000000000000000000000000000000000000000000000000000602082015250565b7f46495253545f574f524400000000000000000000000000000000000000000000600082015250565b7f646174613a6170706c69636174696f6e2f6a736f6e3b6261736536342c000000600082015250565b7f4552433732313a207472616e736665722063616c6c6572206973206e6f74206f60008201527f776e6572206e6f7220617070726f766564000000000000000000000000000000602082015250565b7f434f4c4f52000000000000000000000000000000000000000000000000000000600082015250565b613ae281613218565b8114613aed57600080fd5b50565b613af98161322a565b8114613b0457600080fd5b50565b613b1081613236565b8114613b1b57600080fd5b50565b613b2781613282565b8114613b3257600080fd5b5056fe416e204e465420772f20494420257320686173206265656e206d696e74656420746f2025734142434445464748494a4b4c4d4e4f505152535455565758595a6162636465666768696a6b6c6d6e6f707172737475767778797a303132333435363738392b2fa2646970667358221220de0e706d8d11f12ab982e347d2ad1e25a294bfcb0fab04a0baa9abc2ab52810f64736f6c634300080100333c73766720786d6c6e733d27687474703a2f2f7777772e77332e6f72672f323030302f73766727207072657365727665417370656374526174696f3d27784d696e594d696e206d656574272076696577426f783d273020302033353020333530273e3c7374796c653e2e62617365207b2066696c6c3a2077686974653b20666f6e742d66616d696c793a2073657269663b20666f6e742d73697a653a20323470783b207d3c2f7374796c653e3c726563742077696474683d273130302527206865696768743d2731303025272066696c6c3d275468697320697320736d61727420636f6e7472616374206973206d61646520627920526168756c272f3e3c7465787420783d273530252720793d273530252720636c6173733d27626173652720646f6d696e616e742d626173656c696e653d276d6964646c652720746578742d616e63686f723d276d6964646c65273e",
  "linkReferences": {},
  "deployedLinkReferences": {}
}